{
  "contractName": "Election",
  "abi": [
    {
      "inputs": [
        {
          "internalType": "string",
          "name": "_name",
          "type": "string"
        }
      ],
      "stateMutability": "nonpayable",
      "type": "constructor"
    },
    {
      "inputs": [
        {
          "internalType": "uint256",
          "name": "",
          "type": "uint256"
        }
      ],
      "name": "candidateAddresses",
      "outputs": [
        {
          "internalType": "address",
          "name": "",
          "type": "address"
        }
      ],
      "stateMutability": "view",
      "type": "function",
      "constant": true
    },
    {
      "inputs": [
        {
          "internalType": "address",
          "name": "",
          "type": "address"
        }
      ],
      "name": "candidates",
      "outputs": [
        {
          "internalType": "string",
          "name": "name",
          "type": "string"
        },
        {
          "internalType": "bool",
          "name": "registered",
          "type": "bool"
        },
        {
          "internalType": "bool",
          "name": "approved",
          "type": "bool"
        },
        {
          "internalType": "uint256",
          "name": "voteCount",
          "type": "uint256"
        }
      ],
      "stateMutability": "view",
      "type": "function",
      "constant": true
    },
    {
      "inputs": [],
      "name": "electionName",
      "outputs": [
        {
          "internalType": "string",
          "name": "",
          "type": "string"
        }
      ],
      "stateMutability": "view",
      "type": "function",
      "constant": true
    },
    {
      "inputs": [],
      "name": "owner",
      "outputs": [
        {
          "internalType": "address",
          "name": "",
          "type": "address"
        }
      ],
      "stateMutability": "view",
      "type": "function",
      "constant": true
    },
    {
      "inputs": [],
      "name": "state",
      "outputs": [
        {
          "internalType": "enum Election.State",
          "name": "",
          "type": "uint8"
        }
      ],
      "stateMutability": "view",
      "type": "function",
      "constant": true
    },
    {
      "inputs": [],
      "name": "totalVotes",
      "outputs": [
        {
          "internalType": "uint256",
          "name": "",
          "type": "uint256"
        }
      ],
      "stateMutability": "view",
      "type": "function",
      "constant": true
    },
    {
      "inputs": [
        {
          "internalType": "address",
          "name": "",
          "type": "address"
        }
      ],
      "name": "voters",
      "outputs": [
        {
          "internalType": "bool",
          "name": "voted",
          "type": "bool"
        },
        {
          "internalType": "bool",
          "name": "registered",
          "type": "bool"
        },
        {
          "internalType": "address",
          "name": "vote",
          "type": "address"
        }
      ],
      "stateMutability": "view",
      "type": "function",
      "constant": true
    },
    {
      "inputs": [],
      "name": "payFee",
      "outputs": [],
      "stateMutability": "payable",
      "type": "function",
      "payable": true
    },
    {
      "inputs": [
        {
          "internalType": "address",
          "name": "_voterAddress",
          "type": "address"
        }
      ],
      "name": "registerVoter",
      "outputs": [],
      "stateMutability": "nonpayable",
      "type": "function"
    },
    {
      "inputs": [
        {
          "internalType": "address",
          "name": "_canAddress",
          "type": "address"
        },
        {
          "internalType": "string",
          "name": "_name",
          "type": "string"
        }
      ],
      "name": "addCandidate",
      "outputs": [],
      "stateMutability": "nonpayable",
      "type": "function"
    },
    {
      "inputs": [],
      "name": "startVote",
      "outputs": [],
      "stateMutability": "nonpayable",
      "type": "function"
    },
    {
      "inputs": [
        {
          "internalType": "address",
          "name": "_canAddress",
          "type": "address"
        }
      ],
      "name": "vote",
      "outputs": [],
      "stateMutability": "nonpayable",
      "type": "function"
    },
    {
      "inputs": [],
      "name": "endVote",
      "outputs": [],
      "stateMutability": "nonpayable",
      "type": "function"
    },
    {
      "inputs": [],
      "name": "announceWinner",
      "outputs": [
        {
          "internalType": "address",
          "name": "",
          "type": "address"
        }
      ],
      "stateMutability": "view",
      "type": "function",
      "constant": true
    },
    {
      "inputs": [],
      "name": "getTotalCandidate",
      "outputs": [
        {
          "internalType": "uint256",
          "name": "",
          "type": "uint256"
        }
      ],
      "stateMutability": "view",
      "type": "function",
      "constant": true
    }
  ],
  "bytecode": "0x60806040523480156200001157600080fd5b506040516200273438038062002734833981810160405281019062000037919062000252565b33600160006101000a81548173ffffffffffffffffffffffffffffffffffffffff021916908373ffffffffffffffffffffffffffffffffffffffff1602179055508060029081620000899190620004ee565b506000600660006101000a81548160ff02191690836002811115620000b357620000b2620005d5565b5b02179055505062000604565b6000604051905090565b600080fd5b600080fd5b600080fd5b600080fd5b6000601f19601f8301169050919050565b7f4e487b7100000000000000000000000000000000000000000000000000000000600052604160045260246000fd5b6200012882620000dd565b810181811067ffffffffffffffff821117156200014a5762000149620000ee565b5b80604052505050565b60006200015f620000bf565b90506200016d82826200011d565b919050565b600067ffffffffffffffff82111562000190576200018f620000ee565b5b6200019b82620000dd565b9050602081019050919050565b60005b83811015620001c8578082015181840152602081019050620001ab565b60008484015250505050565b6000620001eb620001e58462000172565b62000153565b9050828152602081018484840111156200020a5762000209620000d8565b5b62000217848285620001a8565b509392505050565b600082601f830112620002375762000236620000d3565b5b815162000249848260208601620001d4565b91505092915050565b6000602082840312156200026b576200026a620000c9565b5b600082015167ffffffffffffffff8111156200028c576200028b620000ce565b5b6200029a848285016200021f565b91505092915050565b600081519050919050565b7f4e487b7100000000000000000000000000000000000000000000000000000000600052602260045260246000fd5b60006002820490506001821680620002f657607f821691505b6020821081036200030c576200030b620002ae565b5b50919050565b60008190508160005260206000209050919050565b60006020601f8301049050919050565b600082821b905092915050565b600060088302620003767fffffffffffffffffffffffffffffffffffffffffffffffffffffffffffffffff8262000337565b62000382868362000337565b95508019841693508086168417925050509392505050565b6000819050919050565b6000819050919050565b6000620003cf620003c9620003c3846200039a565b620003a4565b6200039a565b9050919050565b6000819050919050565b620003eb83620003ae565b62000403620003fa82620003d6565b84845462000344565b825550505050565b600090565b6200041a6200040b565b62000427818484620003e0565b505050565b5b818110156200044f576200044360008262000410565b6001810190506200042d565b5050565b601f8211156200049e57620004688162000312565b620004738462000327565b8101602085101562000483578190505b6200049b620004928562000327565b8301826200042c565b50505b505050565b600082821c905092915050565b6000620004c360001984600802620004a3565b1980831691505092915050565b6000620004de8383620004b0565b9150826002028217905092915050565b620004f982620002a3565b67ffffffffffffffff811115620005155762000514620000ee565b5b620005218254620002dd565b6200052e82828562000453565b600060209050601f83116001811462000566576000841562000551578287015190505b6200055d8582620004d0565b865550620005cd565b601f198416620005768662000312565b60005b82811015620005a05784890151825560018201915060208501945060208101905062000579565b86831015620005c05784890151620005bc601f891682620004b0565b8355505b6001600288020188555050505b505050505050565b7f4e487b7100000000000000000000000000000000000000000000000000000000600052602160045260246000fd5b61212080620006146000396000f3fe6080604052600436106100e85760003560e01c806385e8e7a71161008a578063a3ec138d11610059578063a3ec138d146102a0578063b9223946146102df578063c19d93fb146102f6578063d55d73c514610321576100e8565b806385e8e7a7146101e15780638ab66a901461020c5780638da5cb5b1461024c5780639a594f0614610277576100e8565b806338db6dd3116100c657806338db6dd31461014d5780634c0a6af01461017657806364d198a11461018d5780636dd7d8ea146101b8576100e8565b80630d15fd77146100ed57806329610252146101185780632d8cd09614610122575b600080fd5b3480156100f957600080fd5b5061010261035e565b60405161010f919061147e565b60405180910390f35b610120610364565b005b34801561012e57600080fd5b5061013761040b565b60405161014491906114da565b60405180910390f35b34801561015957600080fd5b50610174600480360381019061016f9190611535565b610692565b005b34801561018257600080fd5b5061018b610918565b005b34801561019957600080fd5b506101a2610a4d565b6040516101af919061147e565b60405180910390f35b3480156101c457600080fd5b506101df60048036038101906101da9190611535565b610a59565b005b3480156101ed57600080fd5b506101f6610e5e565b60405161020391906115f2565b60405180910390f35b34801561021857600080fd5b50610233600480360381019061022e9190611535565b610eec565b604051610243949392919061162f565b60405180910390f35b34801561025857600080fd5b50610261610fbe565b60405161026e91906114da565b60405180910390f35b34801561028357600080fd5b5061029e600480360381019061029991906117b0565b610fe4565b005b3480156102ac57600080fd5b506102c760048036038101906102c29190611535565b61127a565b6040516102d69392919061180c565b60405180910390f35b3480156102eb57600080fd5b506102f46112de565b005b34801561030257600080fd5b5061030b611413565b60405161031891906118ba565b60405180910390f35b34801561032d57600080fd5b5061034860048036038101906103439190611901565b611426565b60405161035591906114da565b60405180910390f35b60055481565b670de0b6b3a764000034146103ae576040517f08c379a00000000000000000000000000000000000000000000000000000000081526004016103a59061197a565b60405180910390fd5b6001600460003373ffffffffffffffffffffffffffffffffffffffff1673ffffffffffffffffffffffffffffffffffffffff16815260200190815260200160002060010160006101000a81548160ff021916908315150217905550565b6000600280600281111561042257610421611843565b5b600660009054906101000a900460ff16600281111561044457610443611843565b5b14610484576040517f08c379a000000000000000000000000000000000000000000000000000000000815260040161047b906119e6565b60405180910390fd5b600160009054906101000a900473ffffffffffffffffffffffffffffffffffffffff1673ffffffffffffffffffffffffffffffffffffffff163373ffffffffffffffffffffffffffffffffffffffff1614610514576040517f08c379a000000000000000000000000000000000000000000000000000000000815260040161050b90611a52565b60405180910390fd5b60008080600091505b60008054905082101561068857826004600080858154811061054257610541611a72565b5b9060005260206000200160009054906101000a900473ffffffffffffffffffffffffffffffffffffffff1673ffffffffffffffffffffffffffffffffffffffff1673ffffffffffffffffffffffffffffffffffffffff16815260200190815260200160002060020154111561067557600460008084815481106105c8576105c7611a72565b5b9060005260206000200160009054906101000a900473ffffffffffffffffffffffffffffffffffffffff1673ffffffffffffffffffffffffffffffffffffffff1673ffffffffffffffffffffffffffffffffffffffff1681526020019081526020016000206002015492506000828154811061064757610646611a72565b5b9060005260206000200160009054906101000a900473ffffffffffffffffffffffffffffffffffffffff1690505b818061068090611ad0565b92505061051d565b8094505050505090565b600160009054906101000a900473ffffffffffffffffffffffffffffffffffffffff1673ffffffffffffffffffffffffffffffffffffffff163373ffffffffffffffffffffffffffffffffffffffff1614610722576040517f08c379a000000000000000000000000000000000000000000000000000000000815260040161071990611a52565b60405180910390fd5b600080600281111561073757610736611843565b5b600660009054906101000a900460ff16600281111561075957610758611843565b5b14610799576040517f08c379a0000000000000000000000000000000000000000000000000000000008152600401610790906119e6565b60405180910390fd5b600360008373ffffffffffffffffffffffffffffffffffffffff1673ffffffffffffffffffffffffffffffffffffffff16815260200190815260200160002060000160019054906101000a900460ff1615610829576040517f08c379a000000000000000000000000000000000000000000000000000000000815260040161082090611b64565b60405180910390fd5b600160009054906101000a900473ffffffffffffffffffffffffffffffffffffffff1673ffffffffffffffffffffffffffffffffffffffff168273ffffffffffffffffffffffffffffffffffffffff16036108b9576040517f08c379a00000000000000000000000000000000000000000000000000000000081526004016108b090611bd0565b60405180910390fd5b6001600360008473ffffffffffffffffffffffffffffffffffffffff1673ffffffffffffffffffffffffffffffffffffffff16815260200190815260200160002060000160016101000a81548160ff0219169083151502179055505050565b600080600281111561092d5761092c611843565b5b600660009054906101000a900460ff16600281111561094f5761094e611843565b5b1461098f576040517f08c379a0000000000000000000000000000000000000000000000000000000008152600401610986906119e6565b60405180910390fd5b600160009054906101000a900473ffffffffffffffffffffffffffffffffffffffff1673ffffffffffffffffffffffffffffffffffffffff163373ffffffffffffffffffffffffffffffffffffffff1614610a1f576040517f08c379a0000000000000000000000000000000000000000000000000000000008152600401610a1690611a52565b60405180910390fd5b6001600660006101000a81548160ff02191690836002811115610a4557610a44611843565b5b021790555050565b60008080549050905090565b6001806002811115610a6e57610a6d611843565b5b600660009054906101000a900460ff166002811115610a9057610a8f611843565b5b14610ad0576040517f08c379a0000000000000000000000000000000000000000000000000000000008152600401610ac7906119e6565b60405180910390fd5b600360003373ffffffffffffffffffffffffffffffffffffffff1673ffffffffffffffffffffffffffffffffffffffff16815260200190815260200160002060000160019054906101000a900460ff16610b5f576040517f08c379a0000000000000000000000000000000000000000000000000000000008152600401610b5690611c3c565b60405180910390fd5b600360003373ffffffffffffffffffffffffffffffffffffffff1673ffffffffffffffffffffffffffffffffffffffff16815260200190815260200160002060000160009054906101000a900460ff1615610bef576040517f08c379a0000000000000000000000000000000000000000000000000000000008152600401610be690611ca8565b60405180910390fd5b600460008373ffffffffffffffffffffffffffffffffffffffff1673ffffffffffffffffffffffffffffffffffffffff16815260200190815260200160002060010160009054906101000a900460ff16610c7e576040517f08c379a0000000000000000000000000000000000000000000000000000000008152600401610c7590611d14565b60405180910390fd5b600160009054906101000a900473ffffffffffffffffffffffffffffffffffffffff1673ffffffffffffffffffffffffffffffffffffffff163373ffffffffffffffffffffffffffffffffffffffff1603610d0e576040517f08c379a0000000000000000000000000000000000000000000000000000000008152600401610d0590611d80565b60405180910390fd5b81600360003373ffffffffffffffffffffffffffffffffffffffff1673ffffffffffffffffffffffffffffffffffffffff16815260200190815260200160002060000160026101000a81548173ffffffffffffffffffffffffffffffffffffffff021916908373ffffffffffffffffffffffffffffffffffffffff1602179055506001600360003373ffffffffffffffffffffffffffffffffffffffff1673ffffffffffffffffffffffffffffffffffffffff16815260200190815260200160002060000160006101000a81548160ff021916908315150217905550600460008373ffffffffffffffffffffffffffffffffffffffff1673ffffffffffffffffffffffffffffffffffffffff1681526020019081526020016000206002016000815480929190610e3d90611ad0565b919050555060056000815480929190610e5590611ad0565b91905055505050565b60028054610e6b90611dcf565b80601f0160208091040260200160405190810160405280929190818152602001828054610e9790611dcf565b8015610ee45780601f10610eb957610100808354040283529160200191610ee4565b820191906000526020600020905b815481529060010190602001808311610ec757829003601f168201915b505050505081565b6004602052806000526040600020600091509050806000018054610f0f90611dcf565b80601f0160208091040260200160405190810160405280929190818152602001828054610f3b90611dcf565b8015610f885780601f10610f5d57610100808354040283529160200191610f88565b820191906000526020600020905b815481529060010190602001808311610f6b57829003601f168201915b5050505050908060010160009054906101000a900460ff16908060010160019054906101000a900460ff16908060020154905084565b600160009054906101000a900473ffffffffffffffffffffffffffffffffffffffff1681565b600160009054906101000a900473ffffffffffffffffffffffffffffffffffffffff1673ffffffffffffffffffffffffffffffffffffffff163373ffffffffffffffffffffffffffffffffffffffff1614611074576040517f08c379a000000000000000000000000000000000000000000000000000000000815260040161106b90611a52565b60405180910390fd5b600080600281111561108957611088611843565b5b600660009054906101000a900460ff1660028111156110ab576110aa611843565b5b146110eb576040517f08c379a00000000000000000000000000000000000000000000000000000000081526004016110e2906119e6565b60405180910390fd5b600460008473ffffffffffffffffffffffffffffffffffffffff1673ffffffffffffffffffffffffffffffffffffffff16815260200190815260200160002060010160009054906101000a900460ff1661117a576040517f08c379a000000000000000000000000000000000000000000000000000000000815260040161117190611e4c565b60405180910390fd5b81600460008573ffffffffffffffffffffffffffffffffffffffff1673ffffffffffffffffffffffffffffffffffffffff16815260200190815260200160002060000190816111c99190612018565b506000600460008573ffffffffffffffffffffffffffffffffffffffff1673ffffffffffffffffffffffffffffffffffffffff168152602001908152602001600020600201819055506000839080600181540180825580915050600190039060005260206000200160009091909190916101000a81548173ffffffffffffffffffffffffffffffffffffffff021916908373ffffffffffffffffffffffffffffffffffffffff160217905550505050565b60036020528060005260406000206000915090508060000160009054906101000a900460ff16908060000160019054906101000a900460ff16908060000160029054906101000a900473ffffffffffffffffffffffffffffffffffffffff16905083565b60018060028111156112f3576112f2611843565b5b600660009054906101000a900460ff16600281111561131557611314611843565b5b14611355576040517f08c379a000000000000000000000000000000000000000000000000000000000815260040161134c906119e6565b60405180910390fd5b600160009054906101000a900473ffffffffffffffffffffffffffffffffffffffff1673ffffffffffffffffffffffffffffffffffffffff163373ffffffffffffffffffffffffffffffffffffffff16146113e5576040517f08c379a00000000000000000000000000000000000000000000000000000000081526004016113dc90611a52565b60405180910390fd5b6002600660006101000a81548160ff0219169083600281111561140b5761140a611843565b5b021790555050565b600660009054906101000a900460ff1681565b6000818154811061143657600080fd5b906000526020600020016000915054906101000a900473ffffffffffffffffffffffffffffffffffffffff1681565b6000819050919050565b61147881611465565b82525050565b6000602082019050611493600083018461146f565b92915050565b600073ffffffffffffffffffffffffffffffffffffffff82169050919050565b60006114c482611499565b9050919050565b6114d4816114b9565b82525050565b60006020820190506114ef60008301846114cb565b92915050565b6000604051905090565b600080fd5b600080fd5b611512816114b9565b811461151d57600080fd5b50565b60008135905061152f81611509565b92915050565b60006020828403121561154b5761154a6114ff565b5b600061155984828501611520565b91505092915050565b600081519050919050565b600082825260208201905092915050565b60005b8381101561159c578082015181840152602081019050611581565b60008484015250505050565b6000601f19601f8301169050919050565b60006115c482611562565b6115ce818561156d565b93506115de81856020860161157e565b6115e7816115a8565b840191505092915050565b6000602082019050818103600083015261160c81846115b9565b905092915050565b60008115159050919050565b61162981611614565b82525050565b6000608082019050818103600083015261164981876115b9565b90506116586020830186611620565b6116656040830185611620565b611672606083018461146f565b95945050505050565b600080fd5b600080fd5b7f4e487b7100000000000000000000000000000000000000000000000000000000600052604160045260246000fd5b6116bd826115a8565b810181811067ffffffffffffffff821117156116dc576116db611685565b5b80604052505050565b60006116ef6114f5565b90506116fb82826116b4565b919050565b600067ffffffffffffffff82111561171b5761171a611685565b5b611724826115a8565b9050602081019050919050565b82818337600083830152505050565b600061175361174e84611700565b6116e5565b90508281526020810184848401111561176f5761176e611680565b5b61177a848285611731565b509392505050565b600082601f8301126117975761179661167b565b5b81356117a7848260208601611740565b91505092915050565b600080604083850312156117c7576117c66114ff565b5b60006117d585828601611520565b925050602083013567ffffffffffffffff8111156117f6576117f5611504565b5b61180285828601611782565b9150509250929050565b60006060820190506118216000830186611620565b61182e6020830185611620565b61183b60408301846114cb565b949350505050565b7f4e487b7100000000000000000000000000000000000000000000000000000000600052602160045260246000fd5b6003811061188357611882611843565b5b50565b600081905061189482611872565b919050565b60006118a482611886565b9050919050565b6118b481611899565b82525050565b60006020820190506118cf60008301846118ab565b92915050565b6118de81611465565b81146118e957600080fd5b50565b6000813590506118fb816118d5565b92915050565b600060208284031215611917576119166114ff565b5b6000611925848285016118ec565b91505092915050565b7f496e73756666696369656e74732066756e647300000000000000000000000000600082015250565b600061196460138361156d565b915061196f8261192e565b602082019050919050565b6000602082019050818103600083015261199381611957565b9050919050565b7f496e636f72726563742073746174650000000000000000000000000000000000600082015250565b60006119d0600f8361156d565b91506119db8261199a565b602082019050919050565b600060208201905081810360008301526119ff816119c3565b9050919050565b7f4e6f74206f776e65720000000000000000000000000000000000000000000000600082015250565b6000611a3c60098361156d565b9150611a4782611a06565b602082019050919050565b60006020820190508181036000830152611a6b81611a2f565b9050919050565b7f4e487b7100000000000000000000000000000000000000000000000000000000600052603260045260246000fd5b7f4e487b7100000000000000000000000000000000000000000000000000000000600052601160045260246000fd5b6000611adb82611465565b91507fffffffffffffffffffffffffffffffffffffffffffffffffffffffffffffffff8203611b0d57611b0c611aa1565b5b600182019050919050565b7f566f74657220616c726561647920726567697374657265640000000000000000600082015250565b6000611b4e60188361156d565b9150611b5982611b18565b602082019050919050565b60006020820190508181036000830152611b7d81611b41565b9050919050565b7f546865206f776e65722063616e6e6f74206265206120766f7465720000000000600082015250565b6000611bba601b8361156d565b9150611bc582611b84565b602082019050919050565b60006020820190508181036000830152611be981611bad565b9050919050565b7f566f746572206e6f742072656769737465726564000000000000000000000000600082015250565b6000611c2660148361156d565b9150611c3182611bf0565b602082019050919050565b60006020820190508181036000830152611c5581611c19565b9050919050565b7f54686520766f7465722063616e206f6e6c7920766f7465206f6e636500000000600082015250565b6000611c92601c8361156d565b9150611c9d82611c5c565b602082019050919050565b60006020820190508181036000830152611cc181611c85565b9050919050565b7f43616e646964617465206e6f7420726567697374657265640000000000000000600082015250565b6000611cfe60188361156d565b9150611d0982611cc8565b602082019050919050565b60006020820190508181036000830152611d2d81611cf1565b9050919050565b7f4f776e65722063616e6e6f7420766f7465000000000000000000000000000000600082015250565b6000611d6a60118361156d565b9150611d7582611d34565b602082019050919050565b60006020820190508181036000830152611d9981611d5d565b9050919050565b7f4e487b7100000000000000000000000000000000000000000000000000000000600052602260045260246000fd5b60006002820490506001821680611de757607f821691505b602082108103611dfa57611df9611da0565b5b50919050565b7f556e726567697374657265642063616e64696461746500000000000000000000600082015250565b6000611e3660168361156d565b9150611e4182611e00565b602082019050919050565b60006020820190508181036000830152611e6581611e29565b9050919050565b60008190508160005260206000209050919050565b60006020601f8301049050919050565b600082821b905092915050565b600060088302611ece7fffffffffffffffffffffffffffffffffffffffffffffffffffffffffffffffff82611e91565b611ed88683611e91565b95508019841693508086168417925050509392505050565b6000819050919050565b6000611f15611f10611f0b84611465565b611ef0565b611465565b9050919050565b6000819050919050565b611f2f83611efa565b611f43611f3b82611f1c565b848454611e9e565b825550505050565b600090565b611f58611f4b565b611f63818484611f26565b505050565b5b81811015611f8757611f7c600082611f50565b600181019050611f69565b5050565b601f821115611fcc57611f9d81611e6c565b611fa684611e81565b81016020851015611fb5578190505b611fc9611fc185611e81565b830182611f68565b50505b505050565b600082821c905092915050565b6000611fef60001984600802611fd1565b1980831691505092915050565b60006120088383611fde565b9150826002028217905092915050565b61202182611562565b67ffffffffffffffff81111561203a57612039611685565b5b6120448254611dcf565b61204f828285611f8b565b600060209050601f8311600181146120825760008415612070578287015190505b61207a8582611ffc565b8655506120e2565b601f19841661209086611e6c565b60005b828110156120b857848901518255600182019150602085019450602081019050612093565b868310156120d557848901516120d1601f891682611fde565b8355505b6001600288020188555050505b50505050505056fea2646970667358221220b12a5dffe2074ef8cd6b209b5c97d2fda54e4abdaa97cf757b892e10462820b564736f6c63430008110033",
  "immutableReferences": {},
  "source": "// SPDX-License-Identifier: MIT\r\npragma solidity ^0.8.13;\r\n\r\ncontract Election{\r\n\r\n    struct Candidate {\r\n        string name;\r\n        bool registered;\r\n        bool approved;\r\n        uint voteCount;\r\n    }\r\n\r\n    struct Voter {\r\n        bool voted;\r\n        bool registered;\r\n        address vote;\r\n    }\r\n\r\n    address[] public candidateAddresses;\r\n    address public owner;\r\n    string public electionName;\r\n\r\n    mapping(address => Voter) public voters;\r\n    mapping(address => Candidate) public candidates;\r\n    uint public totalVotes;\r\n\r\n    enum State {Created, Voting, Ended} State public state;\r\n\r\n    modifier onlyOwner(){\r\n        require(msg.sender == owner, \"Not owner\");\r\n        _;\r\n    }\r\n\r\n    modifier inState(State _state){\r\n        require(state == _state, \"Incorrect state\");\r\n        _;\r\n    }\r\n\r\n    constructor(string memory _name){\r\n        owner = msg.sender;\r\n        electionName = _name;\r\n        state = State.Created;\r\n    }\r\n\r\n    function payFee() public payable {\r\n        //TODO validar por el dueo del contrato\r\n        require(msg.value == 1 ether, \"Insufficients funds\");\r\n        candidates[msg.sender].registered = true;\r\n    }\r\n\r\n    function registerVoter(address _voterAddress) onlyOwner inState(State.Created) public {\r\n        require(!voters[_voterAddress].registered, \"Voter already registered\");\r\n        require(_voterAddress != owner, \"The owner cannot be a voter\");\r\n        voters[_voterAddress].registered = true;\r\n    }\r\n\r\n    function addCandidate(address _canAddress, string memory _name) onlyOwner inState(State.Created) public{\r\n        require(candidates[_canAddress].registered, \"Unregistered candidate\");\r\n        candidates[_canAddress].name = _name;\r\n        candidates[_canAddress].voteCount = 0;\r\n        candidateAddresses.push(_canAddress);\r\n    }\r\n\r\n    function startVote() inState(State.Created) onlyOwner public {\r\n        state = State.Voting;\r\n    }\r\n\r\n    function vote(address _canAddress) inState(State.Voting) public {\r\n        require(voters[msg.sender].registered, \"Voter not registered\");\r\n        require(!voters[msg.sender].voted, \"The voter can only vote once\");\r\n        require(candidates[_canAddress].registered, \"Candidate not registered\");\r\n        require(msg.sender != owner, \"Owner cannot vote\");\r\n        voters[msg.sender].vote = _canAddress;\r\n        voters[msg.sender].voted = true;\r\n        candidates[_canAddress].voteCount++;\r\n        totalVotes++;\r\n    }\r\n\r\n\r\n\r\n\r\n    function endVote() inState(State.Voting) onlyOwner public {\r\n        state = State.Ended;\r\n    }\r\n\r\n    function announceWinner() inState(State.Ended) onlyOwner public view returns(address){\r\n        uint max = 0;\r\n        uint i;\r\n        address winnerAddress;\r\n        for(i=0; i<candidateAddresses.length; i++) {\r\n            if(candidates[candidateAddresses[i]].voteCount > max){\r\n                max = candidates[candidateAddresses[i]].voteCount;\r\n                winnerAddress = candidateAddresses[i];\r\n            }\r\n        }\r\n        return winnerAddress;\r\n    }\r\n\r\n    function getTotalCandidate() public view returns(uint){\r\n        return candidateAddresses.length;\r\n    }\r\n\r\n\r\n}",
  "sourcePath": "C:\\Users\\Zeta\\Desktop\\Voting System\\backend\\contracts\\Election.sol",
  "compiler": {
    "name": "solc",
    "version": "0.8.17+commit.8df45f5f.Emscripten.clang"
  },
  "schemaVersion": "3.4.10",
  "updatedAt": "2022-10-22T14:50:30.388Z",
  "networkType": "ethereum",
  "devdoc": {
    "kind": "dev",
    "methods": {},
    "version": 1
  },
  "userdoc": {
    "kind": "user",
    "methods": {},
    "version": 1
  }
}